{
    "contractName": "BonhommesSFT",
    "abi": [
        {
            "inputs": [],
            "stateMutability": "nonpayable",
            "type": "constructor"
        },
        {
            "anonymous": false,
            "inputs": [
                {
                    "indexed": true,
                    "internalType": "address",
                    "name": "account",
                    "type": "address"
                },
                {
                    "indexed": true,
                    "internalType": "address",
                    "name": "operator",
                    "type": "address"
                },
                {
                    "indexed": false,
                    "internalType": "bool",
                    "name": "approved",
                    "type": "bool"
                }
            ],
            "name": "ApprovalForAll",
            "type": "event"
        },
        {
            "anonymous": false,
            "inputs": [
                {
                    "indexed": true,
                    "internalType": "address",
                    "name": "operator",
                    "type": "address"
                },
                {
                    "indexed": true,
                    "internalType": "address",
                    "name": "from",
                    "type": "address"
                },
                {
                    "indexed": true,
                    "internalType": "address",
                    "name": "to",
                    "type": "address"
                },
                {
                    "indexed": false,
                    "internalType": "uint256[]",
                    "name": "ids",
                    "type": "uint256[]"
                },
                {
                    "indexed": false,
                    "internalType": "uint256[]",
                    "name": "values",
                    "type": "uint256[]"
                }
            ],
            "name": "TransferBatch",
            "type": "event"
        },
        {
            "anonymous": false,
            "inputs": [
                {
                    "indexed": true,
                    "internalType": "address",
                    "name": "operator",
                    "type": "address"
                },
                {
                    "indexed": true,
                    "internalType": "address",
                    "name": "from",
                    "type": "address"
                },
                {
                    "indexed": true,
                    "internalType": "address",
                    "name": "to",
                    "type": "address"
                },
                {
                    "indexed": false,
                    "internalType": "uint256",
                    "name": "id",
                    "type": "uint256"
                },
                {
                    "indexed": false,
                    "internalType": "uint256",
                    "name": "value",
                    "type": "uint256"
                }
            ],
            "name": "TransferSingle",
            "type": "event"
        },
        {
            "anonymous": false,
            "inputs": [
                {
                    "indexed": false,
                    "internalType": "string",
                    "name": "value",
                    "type": "string"
                },
                {
                    "indexed": true,
                    "internalType": "uint256",
                    "name": "id",
                    "type": "uint256"
                }
            ],
            "name": "URI",
            "type": "event"
        },
        {
            "inputs": [
                {
                    "internalType": "address",
                    "name": "_player",
                    "type": "address"
                },
                {
                    "internalType": "string",
                    "name": "_name",
                    "type": "string"
                },
                {
                    "internalType": "uint256",
                    "name": "_height",
                    "type": "uint256"
                },
                {
                    "internalType": "bool",
                    "name": "_hair",
                    "type": "bool"
                },
                {
                    "internalType": "uint256",
                    "name": "_number",
                    "type": "uint256"
                }
            ],
            "name": "MintBonhommes",
            "outputs": [
                {
                    "internalType": "uint256",
                    "name": "",
                    "type": "uint256"
                }
            ],
            "stateMutability": "nonpayable",
            "type": "function"
        },
        {
            "inputs": [
                {
                    "internalType": "address",
                    "name": "account",
                    "type": "address"
                },
                {
                    "internalType": "uint256",
                    "name": "id",
                    "type": "uint256"
                }
            ],
            "name": "balanceOf",
            "outputs": [
                {
                    "internalType": "uint256",
                    "name": "",
                    "type": "uint256"
                }
            ],
            "stateMutability": "view",
            "type": "function"
        },
        {
            "inputs": [
                {
                    "internalType": "address[]",
                    "name": "accounts",
                    "type": "address[]"
                },
                {
                    "internalType": "uint256[]",
                    "name": "ids",
                    "type": "uint256[]"
                }
            ],
            "name": "balanceOfBatch",
            "outputs": [
                {
                    "internalType": "uint256[]",
                    "name": "",
                    "type": "uint256[]"
                }
            ],
            "stateMutability": "view",
            "type": "function"
        },
        {
            "inputs": [],
            "name": "init",
            "outputs": [],
            "stateMutability": "nonpayable",
            "type": "function"
        },
        {
            "inputs": [
                {
                    "internalType": "address",
                    "name": "account",
                    "type": "address"
                },
                {
                    "internalType": "address",
                    "name": "operator",
                    "type": "address"
                }
            ],
            "name": "isApprovedForAll",
            "outputs": [
                {
                    "internalType": "bool",
                    "name": "",
                    "type": "bool"
                }
            ],
            "stateMutability": "view",
            "type": "function"
        },
        {
            "inputs": [
                {
                    "internalType": "uint256",
                    "name": "tokenId",
                    "type": "uint256"
                },
                {
                    "internalType": "uint256",
                    "name": "value",
                    "type": "uint256"
                }
            ],
            "name": "royaltyInfo",
            "outputs": [
                {
                    "internalType": "address",
                    "name": "receiver",
                    "type": "address"
                },
                {
                    "internalType": "uint256",
                    "name": "royaltyAmount",
                    "type": "uint256"
                }
            ],
            "stateMutability": "view",
            "type": "function"
        },
        {
            "inputs": [
                {
                    "internalType": "address",
                    "name": "from",
                    "type": "address"
                },
                {
                    "internalType": "address",
                    "name": "to",
                    "type": "address"
                },
                {
                    "internalType": "uint256[]",
                    "name": "ids",
                    "type": "uint256[]"
                },
                {
                    "internalType": "uint256[]",
                    "name": "amounts",
                    "type": "uint256[]"
                },
                {
                    "internalType": "bytes",
                    "name": "data",
                    "type": "bytes"
                }
            ],
            "name": "safeBatchTransferFrom",
            "outputs": [],
            "stateMutability": "nonpayable",
            "type": "function"
        },
        {
            "inputs": [
                {
                    "internalType": "address",
                    "name": "from",
                    "type": "address"
                },
                {
                    "internalType": "address",
                    "name": "to",
                    "type": "address"
                },
                {
                    "internalType": "uint256",
                    "name": "id",
                    "type": "uint256"
                },
                {
                    "internalType": "uint256",
                    "name": "amount",
                    "type": "uint256"
                },
                {
                    "internalType": "bytes",
                    "name": "data",
                    "type": "bytes"
                }
            ],
            "name": "safeTransferFrom",
            "outputs": [],
            "stateMutability": "nonpayable",
            "type": "function"
        },
        {
            "inputs": [
                {
                    "internalType": "address",
                    "name": "operator",
                    "type": "address"
                },
                {
                    "internalType": "bool",
                    "name": "approved",
                    "type": "bool"
                }
            ],
            "name": "setApprovalForAll",
            "outputs": [],
            "stateMutability": "nonpayable",
            "type": "function"
        },
        {
            "inputs": [
                {
                    "internalType": "bytes4",
                    "name": "interfaceId",
                    "type": "bytes4"
                }
            ],
            "name": "supportsInterface",
            "outputs": [
                {
                    "internalType": "bool",
                    "name": "",
                    "type": "bool"
                }
            ],
            "stateMutability": "view",
            "type": "function"
        },
        {
            "inputs": [
                {
                    "internalType": "uint256",
                    "name": "",
                    "type": "uint256"
                }
            ],
            "name": "uri",
            "outputs": [
                {
                    "internalType": "string",
                    "name": "",
                    "type": "string"
                }
            ],
            "stateMutability": "view",
            "type": "function"
        }
    ],
    "bytecode": "60806040523480156200001157600080fd5b5060405180606001604052806023815260200162001b196023913962000037816200003e565b50620001c1565b60026200004c8282620000f5565b5050565b634e487b7160e01b600052604160045260246000fd5b600181811c908216806200007b57607f821691505b6020821081036200009c57634e487b7160e01b600052602260045260246000fd5b50919050565b601f821115620000f057600081815260208120601f850160051c81016020861015620000cb5750805b601f850160051c820191505b81811015620000ec57828155600101620000d7565b5050505b505050565b81516001600160401b0381111562000111576200011162000050565b620001298162000122845462000066565b84620000a2565b602080601f831160018114620001615760008415620001485750858301515b600019600386901b1c1916600185901b178555620000ec565b600085815260208120601f198616915b82811015620001925788860151825594840194600190910190840162000171565b5085821015620001b15787850151600019600388901b60f8161c191681555b5050505050600190811b01905550565b61194880620001d16000396000f3fe608060405234801561001057600080fd5b50600436106100a85760003560e01c80634e1273f4116100715780634e1273f41461015d5780638b7aef391461017d578063a22cb46514610190578063e1c7392a146101a3578063e985e9c5146101ab578063f242432a146101e757600080fd5b8062fdd58e146100ad57806301ffc9a7146100d35780630e89341c146100f65780632a55205a146101165780632eb2c2d614610148575b600080fd5b6100c06100bb366004610f25565b6101fa565b6040519081526020015b60405180910390f35b6100e66100e1366004610f65565b610293565b60405190151581526020016100ca565b610109610104366004610f89565b61029e565b6040516100ca9190610fe8565b610129610124366004610ffb565b610332565b604080516001600160a01b0390931683526020830191909152016100ca565b61015b610156366004611173565b610390565b005b61017061016b36600461121d565b6103dc565b6040516100ca9190611319565b6100c061018b36600461133c565b610506565b61015b61019e3660046113c0565b6105d4565b61015b6105e3565b6100e66101b93660046113f3565b6001600160a01b03918216600090815260016020908152604080832093909416825291909152205460ff1690565b61015b6101f536600461141d565b61064a565b60006001600160a01b03831661026a5760405162461bcd60e51b815260206004820152602a60248201527f455243313135353a2061646472657373207a65726f206973206e6f742061207660448201526930b634b21037bbb732b960b11b60648201526084015b60405180910390fd5b506000818152602081815260408083206001600160a01b03861684529091529020545b92915050565b600061028d8261068f565b6060600280546102ad90611482565b80601f01602080910402602001604051908101604052809291908181526020018280546102d990611482565b80156103265780601f106102fb57610100808354040283529160200191610326565b820191906000526020600020905b81548152906001019060200180831161030957829003601f168201915b50505050509050919050565b60008281526003602090815260408083208151808301909252546001600160a01b038116808352600160a01b90910462ffffff1692820183905292916127109061037c90866114d2565b61038691906114e9565b9150509250929050565b6001600160a01b0385163314806103ac57506103ac85336101b9565b6103c85760405162461bcd60e51b81526004016102619061150b565b6103d585858585856106b4565b5050505050565b606081518351146104415760405162461bcd60e51b815260206004820152602960248201527f455243313135353a206163636f756e747320616e6420696473206c656e677468604482015268040dad2e6dac2e8c6d60bb1b6064820152608401610261565b6000835167ffffffffffffffff81111561045d5761045d61101d565b604051908082528060200260200182016040528015610486578160200160208202803683370190505b50905060005b84518110156104fe576104d18582815181106104aa576104aa61155a565b60200260200101518583815181106104c4576104c461155a565b60200260200101516101fa565b8282815181106104e3576104e361155a565b60209081029190910101526104f781611570565b905061048c565b509392505050565b6000610516600480546001019055565b60408051606081018252868152602081018690528415159181019190915260058054600181018255600091909152815160039091027f036b6384b5eca791c62761152d0c79bb0604c104a5fb6f4eb0703f3154bb3db00190819061057a90826115d4565b50602082015160018201556040909101516002909101805460ff19169115159190911790556004546105bd87828560405180602001604052806000815250610891565b6105ca81336103e86109a5565b9695505050505050565b6105df338383610a4e565b5050565b6106163360405180604001604052806009815260200168506172697369656e7360b81b81525060aa6001621e8480610506565b5061064733604051806040016040528060098152602001682337b936b0ba32bab960b91b81525060b9600180610506565b50565b6001600160a01b038516331480610666575061066685336101b9565b6106825760405162461bcd60e51b81526004016102619061150b565b6103d58585858585610b2e565b60006001600160e01b0319821663152a902d60e11b148061028d575061028d82610c58565b81518351146107165760405162461bcd60e51b815260206004820152602860248201527f455243313135353a2069647320616e6420616d6f756e7473206c656e677468206044820152670dad2e6dac2e8c6d60c31b6064820152608401610261565b6001600160a01b03841661073c5760405162461bcd60e51b815260040161026190611694565b3360005b845181101561082357600085828151811061075d5761075d61155a565b60200260200101519050600085838151811061077b5761077b61155a565b602090810291909101810151600084815280835260408082206001600160a01b038e1683529093529190912054909150818110156107cb5760405162461bcd60e51b8152600401610261906116d9565b6000838152602081815260408083206001600160a01b038e8116855292528083208585039055908b16825281208054849290610808908490611723565b925050819055505050508061081c90611570565b9050610740565b50846001600160a01b0316866001600160a01b0316826001600160a01b03167f4a39dc06d4c0dbc64b70af90fd698a233a518aa5d07e595d983b8c0526c8f7fb8787604051610873929190611736565b60405180910390a4610889818787878787610ca8565b505050505050565b6001600160a01b0384166108f15760405162461bcd60e51b815260206004820152602160248201527f455243313135353a206d696e7420746f20746865207a65726f206164647265736044820152607360f81b6064820152608401610261565b3360006108fd85610e03565b9050600061090a85610e03565b90506000868152602081815260408083206001600160a01b038b1684529091528120805487929061093c908490611723565b909155505060408051878152602081018790526001600160a01b03808a1692600092918716917fc3d58168c5ae7397731d063d5bbf3d657854427343f4c083240f7aacaa2d0f62910160405180910390a461099c83600089898989610e4e565b50505050505050565b6127108111156109f75760405162461bcd60e51b815260206004820152601a60248201527f45524332393831526f79616c746965733a20546f6f20686967680000000000006044820152606401610261565b6040805180820182526001600160a01b03938416815262ffffff928316602080830191825260009687526003905291909420935184549151909216600160a01b026001600160b81b03199091169190921617179055565b816001600160a01b0316836001600160a01b031603610ac15760405162461bcd60e51b815260206004820152602960248201527f455243313135353a2073657474696e6720617070726f76616c20737461747573604482015268103337b91039b2b63360b91b6064820152608401610261565b6001600160a01b03838116600081815260016020908152604080832094871680845294825291829020805460ff191686151590811790915591519182527f17307eab39ab6107e8899845ad3d59bd9653f200f220920489ca2b5937696c31910160405180910390a3505050565b6001600160a01b038416610b545760405162461bcd60e51b815260040161026190611694565b336000610b6085610e03565b90506000610b6d85610e03565b90506000868152602081815260408083206001600160a01b038c16845290915290205485811015610bb05760405162461bcd60e51b8152600401610261906116d9565b6000878152602081815260408083206001600160a01b038d8116855292528083208985039055908a16825281208054889290610bed908490611723565b909155505060408051888152602081018890526001600160a01b03808b16928c821692918816917fc3d58168c5ae7397731d063d5bbf3d657854427343f4c083240f7aacaa2d0f62910160405180910390a4610c4d848a8a8a8a8a610e4e565b505050505050505050565b60006001600160e01b03198216636cdb3d1360e11b1480610c8957506001600160e01b031982166303a24d0760e21b145b8061028d57506301ffc9a760e01b6001600160e01b031983161461028d565b6001600160a01b0384163b156108895760405163bc197c8160e01b81526001600160a01b0385169063bc197c8190610cec9089908990889088908890600401611764565b6020604051808303816000875af1925050508015610d27575060408051601f3d908101601f19168201909252610d24918101906117c2565b60015b610dd357610d336117df565b806308c379a003610d6c5750610d476117fb565b80610d525750610d6e565b8060405162461bcd60e51b81526004016102619190610fe8565b505b60405162461bcd60e51b815260206004820152603460248201527f455243313135353a207472616e7366657220746f206e6f6e20455243313135356044820152732932b1b2b4bb32b91034b6b83632b6b2b73a32b960611b6064820152608401610261565b6001600160e01b0319811663bc197c8160e01b1461099c5760405162461bcd60e51b815260040161026190611885565b60408051600180825281830190925260609160009190602080830190803683370190505090508281600081518110610e3d57610e3d61155a565b602090810291909101015292915050565b6001600160a01b0384163b156108895760405163f23a6e6160e01b81526001600160a01b0385169063f23a6e6190610e9290899089908890889088906004016118cd565b6020604051808303816000875af1925050508015610ecd575060408051601f3d908101601f19168201909252610eca918101906117c2565b60015b610ed957610d336117df565b6001600160e01b0319811663f23a6e6160e01b1461099c5760405162461bcd60e51b815260040161026190611885565b80356001600160a01b0381168114610f2057600080fd5b919050565b60008060408385031215610f3857600080fd5b610f4183610f09565b946020939093013593505050565b6001600160e01b03198116811461064757600080fd5b600060208284031215610f7757600080fd5b8135610f8281610f4f565b9392505050565b600060208284031215610f9b57600080fd5b5035919050565b6000815180845260005b81811015610fc857602081850181015186830182015201610fac565b506000602082860101526020601f19601f83011685010191505092915050565b602081526000610f826020830184610fa2565b6000806040838503121561100e57600080fd5b50508035926020909101359150565b634e487b7160e01b600052604160045260246000fd5b601f8201601f1916810167ffffffffffffffff811182821017156110595761105961101d565b6040525050565b600067ffffffffffffffff82111561107a5761107a61101d565b5060051b60200190565b600082601f83011261109557600080fd5b813560206110a282611060565b6040516110af8282611033565b83815260059390931b85018201928281019150868411156110cf57600080fd5b8286015b848110156110ea57803583529183019183016110d3565b509695505050505050565b600067ffffffffffffffff83111561110f5761110f61101d565b604051611126601f8501601f191660200182611033565b80915083815284848401111561113b57600080fd5b83836020830137600060208583010152509392505050565b600082601f83011261116457600080fd5b610f82838335602085016110f5565b600080600080600060a0868803121561118b57600080fd5b61119486610f09565b94506111a260208701610f09565b9350604086013567ffffffffffffffff808211156111bf57600080fd5b6111cb89838a01611084565b945060608801359150808211156111e157600080fd5b6111ed89838a01611084565b9350608088013591508082111561120357600080fd5b5061121088828901611153565b9150509295509295909350565b6000806040838503121561123057600080fd5b823567ffffffffffffffff8082111561124857600080fd5b818501915085601f83011261125c57600080fd5b8135602061126982611060565b6040516112768282611033565b83815260059390931b850182019282810191508984111561129657600080fd5b948201945b838610156112bb576112ac86610f09565b8252948201949082019061129b565b965050860135925050808211156112d157600080fd5b5061038685828601611084565b600081518084526020808501945080840160005b8381101561130e578151875295820195908201906001016112f2565b509495945050505050565b602081526000610f8260208301846112de565b80358015158114610f2057600080fd5b600080600080600060a0868803121561135457600080fd5b61135d86610f09565b9450602086013567ffffffffffffffff81111561137957600080fd5b8601601f8101881361138a57600080fd5b611399888235602084016110f5565b945050604086013592506113af6060870161132c565b949793965091946080013592915050565b600080604083850312156113d357600080fd5b6113dc83610f09565b91506113ea6020840161132c565b90509250929050565b6000806040838503121561140657600080fd5b61140f83610f09565b91506113ea60208401610f09565b600080600080600060a0868803121561143557600080fd5b61143e86610f09565b945061144c60208701610f09565b93506040860135925060608601359150608086013567ffffffffffffffff81111561147657600080fd5b61121088828901611153565b600181811c9082168061149657607f821691505b6020821081036114b657634e487b7160e01b600052602260045260246000fd5b50919050565b634e487b7160e01b600052601160045260246000fd5b808202811582820484141761028d5761028d6114bc565b60008261150657634e487b7160e01b600052601260045260246000fd5b500490565b6020808252602f908201527f455243313135353a2063616c6c6572206973206e6f7420746f6b656e206f776e60408201526e195c881b9bdc88185c1c1c9bdd9959608a1b606082015260800190565b634e487b7160e01b600052603260045260246000fd5b600060018201611582576115826114bc565b5060010190565b601f8211156115cf57600081815260208120601f850160051c810160208610156115b05750805b601f850160051c820191505b81811015610889578281556001016115bc565b505050565b815167ffffffffffffffff8111156115ee576115ee61101d565b611602816115fc8454611482565b84611589565b602080601f831160018114611637576000841561161f5750858301515b600019600386901b1c1916600185901b178555610889565b600085815260208120601f198616915b8281101561166657888601518255948401946001909101908401611647565b50858210156116845787850151600019600388901b60f8161c191681555b5050505050600190811b01905550565b60208082526025908201527f455243313135353a207472616e7366657220746f20746865207a65726f206164604082015264647265737360d81b606082015260800190565b6020808252602a908201527f455243313135353a20696e73756666696369656e742062616c616e636520666f60408201526939103a3930b739b332b960b11b606082015260800190565b8082018082111561028d5761028d6114bc565b60408152600061174960408301856112de565b828103602084015261175b81856112de565b95945050505050565b6001600160a01b0386811682528516602082015260a060408201819052600090611790908301866112de565b82810360608401526117a281866112de565b905082810360808401526117b68185610fa2565b98975050505050505050565b6000602082840312156117d457600080fd5b8151610f8281610f4f565b600060033d11156117f85760046000803e5060005160e01c5b90565b600060443d10156118095790565b6040516003193d81016004833e81513d67ffffffffffffffff816024840111818411171561183957505050505090565b82850191508151818111156118515750505050505090565b843d870101602082850101111561186b5750505050505090565b61187a60208286010187611033565b509095945050505050565b60208082526028908201527f455243313135353a204552433131353552656365697665722072656a656374656040820152676420746f6b656e7360c01b606082015260800190565b6001600160a01b03868116825285166020820152604081018490526060810183905260a06080820181905260009061190790830184610fa2565b97965050505050505056fea264697066735822122046f8878f2da6a4cb1069b8662bb71cbb92c3311b8d30dde93d8a5314e67e588e64736f6c6343000811003368747470733a2f2f697066732e696f2f766f747265686173682f7b69647d2e6a736f6e",
    "sourcePath": "c:/Users/yanni/Documents/Formation Alyra/coursIpfs/contracts/ERC1155.sol",
    "compiler": {
        "name": "solc",
        "version": "0.8.17+commit.8df45f5f"
    },
    "functionHashes": {
        "MintBonhommes(address,string,uint256,bool,uint256)": "8b7aef39",
        "balanceOf(address,uint256)": "00fdd58e",
        "balanceOfBatch(address[],uint256[])": "4e1273f4",
        "init()": "e1c7392a",
        "isApprovedForAll(address,address)": "e985e9c5",
        "royaltyInfo(uint256,uint256)": "2a55205a",
        "safeBatchTransferFrom(address,address,uint256[],uint256[],bytes)": "2eb2c2d6",
        "safeTransferFrom(address,address,uint256,uint256,bytes)": "f242432a",
        "setApprovalForAll(address,bool)": "a22cb465",
        "supportsInterface(bytes4)": "01ffc9a7",
        "uri(uint256)": "0e89341c"
    },
    "gasEstimates": {
        "creation": {
            "codeDepositCost": "1294400",
            "executionCost": "infinite",
            "totalCost": "infinite"
        },
        "external": {
            "MintBonhommes(address,string,uint256,bool,uint256)": "infinite",
            "balanceOf(address,uint256)": "2677",
            "balanceOfBatch(address[],uint256[])": "infinite",
            "init()": "infinite",
            "isApprovedForAll(address,address)": "infinite",
            "royaltyInfo(uint256,uint256)": "2878",
            "safeBatchTransferFrom(address,address,uint256[],uint256[],bytes)": "infinite",
            "safeTransferFrom(address,address,uint256,uint256,bytes)": "infinite",
            "setApprovalForAll(address,bool)": "infinite",
            "supportsInterface(bytes4)": "infinite",
            "uri(uint256)": "infinite"
        }
    }
}