{
    "contractName": "BonhommesNFT",
    "abi": [
        {
            "inputs": [],
            "stateMutability": "nonpayable",
            "type": "constructor"
        },
        {
            "anonymous": false,
            "inputs": [
                {
                    "indexed": true,
                    "internalType": "address",
                    "name": "owner",
                    "type": "address"
                },
                {
                    "indexed": true,
                    "internalType": "address",
                    "name": "approved",
                    "type": "address"
                },
                {
                    "indexed": true,
                    "internalType": "uint256",
                    "name": "tokenId",
                    "type": "uint256"
                }
            ],
            "name": "Approval",
            "type": "event"
        },
        {
            "anonymous": false,
            "inputs": [
                {
                    "indexed": true,
                    "internalType": "address",
                    "name": "owner",
                    "type": "address"
                },
                {
                    "indexed": true,
                    "internalType": "address",
                    "name": "operator",
                    "type": "address"
                },
                {
                    "indexed": false,
                    "internalType": "bool",
                    "name": "approved",
                    "type": "bool"
                }
            ],
            "name": "ApprovalForAll",
            "type": "event"
        },
        {
            "anonymous": false,
            "inputs": [
                {
                    "indexed": true,
                    "internalType": "address",
                    "name": "from",
                    "type": "address"
                },
                {
                    "indexed": true,
                    "internalType": "address",
                    "name": "to",
                    "type": "address"
                },
                {
                    "indexed": true,
                    "internalType": "uint256",
                    "name": "tokenId",
                    "type": "uint256"
                }
            ],
            "name": "Transfer",
            "type": "event"
        },
        {
            "inputs": [
                {
                    "internalType": "address",
                    "name": "_player",
                    "type": "address"
                },
                {
                    "internalType": "string",
                    "name": "_tokenURI",
                    "type": "string"
                },
                {
                    "internalType": "uint256",
                    "name": "_height",
                    "type": "uint256"
                },
                {
                    "internalType": "bool",
                    "name": "_categorie",
                    "type": "bool"
                }
            ],
            "name": "MintTree",
            "outputs": [
                {
                    "internalType": "uint256",
                    "name": "",
                    "type": "uint256"
                }
            ],
            "stateMutability": "nonpayable",
            "type": "function"
        },
        {
            "inputs": [
                {
                    "internalType": "address",
                    "name": "to",
                    "type": "address"
                },
                {
                    "internalType": "uint256",
                    "name": "tokenId",
                    "type": "uint256"
                }
            ],
            "name": "approve",
            "outputs": [],
            "stateMutability": "nonpayable",
            "type": "function"
        },
        {
            "inputs": [
                {
                    "internalType": "address",
                    "name": "owner",
                    "type": "address"
                }
            ],
            "name": "balanceOf",
            "outputs": [
                {
                    "internalType": "uint256",
                    "name": "",
                    "type": "uint256"
                }
            ],
            "stateMutability": "view",
            "type": "function"
        },
        {
            "inputs": [
                {
                    "internalType": "uint256",
                    "name": "tokenId",
                    "type": "uint256"
                }
            ],
            "name": "getApproved",
            "outputs": [
                {
                    "internalType": "address",
                    "name": "",
                    "type": "address"
                }
            ],
            "stateMutability": "view",
            "type": "function"
        },
        {
            "inputs": [
                {
                    "internalType": "address",
                    "name": "owner",
                    "type": "address"
                },
                {
                    "internalType": "address",
                    "name": "operator",
                    "type": "address"
                }
            ],
            "name": "isApprovedForAll",
            "outputs": [
                {
                    "internalType": "bool",
                    "name": "",
                    "type": "bool"
                }
            ],
            "stateMutability": "view",
            "type": "function"
        },
        {
            "inputs": [],
            "name": "name",
            "outputs": [
                {
                    "internalType": "string",
                    "name": "",
                    "type": "string"
                }
            ],
            "stateMutability": "view",
            "type": "function"
        },
        {
            "inputs": [
                {
                    "internalType": "uint256",
                    "name": "tokenId",
                    "type": "uint256"
                }
            ],
            "name": "ownerOf",
            "outputs": [
                {
                    "internalType": "address",
                    "name": "",
                    "type": "address"
                }
            ],
            "stateMutability": "view",
            "type": "function"
        },
        {
            "inputs": [
                {
                    "internalType": "address",
                    "name": "from",
                    "type": "address"
                },
                {
                    "internalType": "address",
                    "name": "to",
                    "type": "address"
                },
                {
                    "internalType": "uint256",
                    "name": "tokenId",
                    "type": "uint256"
                }
            ],
            "name": "safeTransferFrom",
            "outputs": [],
            "stateMutability": "nonpayable",
            "type": "function"
        },
        {
            "inputs": [
                {
                    "internalType": "address",
                    "name": "from",
                    "type": "address"
                },
                {
                    "internalType": "address",
                    "name": "to",
                    "type": "address"
                },
                {
                    "internalType": "uint256",
                    "name": "tokenId",
                    "type": "uint256"
                },
                {
                    "internalType": "bytes",
                    "name": "data",
                    "type": "bytes"
                }
            ],
            "name": "safeTransferFrom",
            "outputs": [],
            "stateMutability": "nonpayable",
            "type": "function"
        },
        {
            "inputs": [
                {
                    "internalType": "address",
                    "name": "operator",
                    "type": "address"
                },
                {
                    "internalType": "bool",
                    "name": "approved",
                    "type": "bool"
                }
            ],
            "name": "setApprovalForAll",
            "outputs": [],
            "stateMutability": "nonpayable",
            "type": "function"
        },
        {
            "inputs": [
                {
                    "internalType": "bytes4",
                    "name": "interfaceId",
                    "type": "bytes4"
                }
            ],
            "name": "supportsInterface",
            "outputs": [
                {
                    "internalType": "bool",
                    "name": "",
                    "type": "bool"
                }
            ],
            "stateMutability": "view",
            "type": "function"
        },
        {
            "inputs": [],
            "name": "symbol",
            "outputs": [
                {
                    "internalType": "string",
                    "name": "",
                    "type": "string"
                }
            ],
            "stateMutability": "view",
            "type": "function"
        },
        {
            "inputs": [
                {
                    "internalType": "uint256",
                    "name": "tokenId",
                    "type": "uint256"
                }
            ],
            "name": "tokenURI",
            "outputs": [
                {
                    "internalType": "string",
                    "name": "",
                    "type": "string"
                }
            ],
            "stateMutability": "view",
            "type": "function"
        },
        {
            "inputs": [
                {
                    "internalType": "address",
                    "name": "from",
                    "type": "address"
                },
                {
                    "internalType": "address",
                    "name": "to",
                    "type": "address"
                },
                {
                    "internalType": "uint256",
                    "name": "tokenId",
                    "type": "uint256"
                }
            ],
            "name": "transferFrom",
            "outputs": [],
            "stateMutability": "nonpayable",
            "type": "function"
        }
    ],
    "bytecode": "60806040523480156200001157600080fd5b50604051806040016040528060048152602001635472656560e01b815250604051806040016040528060028152602001612a2960f11b81525081600090816200005b919062000118565b5060016200006a828262000118565b505050620001e4565b634e487b7160e01b600052604160045260246000fd5b600181811c908216806200009e57607f821691505b602082108103620000bf57634e487b7160e01b600052602260045260246000fd5b50919050565b601f8211156200011357600081815260208120601f850160051c81016020861015620000ee5750805b601f850160051c820191505b818110156200010f57828155600101620000fa565b5050505b505050565b81516001600160401b0381111562000134576200013462000073565b6200014c8162000145845462000089565b84620000c5565b602080601f8311600181146200018457600084156200016b5750858301515b600019600386901b1c1916600185901b1785556200010f565b600085815260208120601f198616915b82811015620001b55788860151825594840194600190910190840162000194565b5085821015620001d45787850151600019600388901b60f8161c191681555b5050505050600190811b01905550565b61167280620001f46000396000f3fe608060405234801561001057600080fd5b50600436106100ea5760003560e01c806370a082311161008c578063b88d4fde11610066578063b88d4fde146101e1578063c87b56dd146101f4578063e985e9c514610207578063fa2f67ce1461021a57600080fd5b806370a08231146101a557806395d89b41146101c6578063a22cb465146101ce57600080fd5b8063095ea7b3116100c8578063095ea7b31461015757806323b872dd1461016c57806342842e0e1461017f5780636352211e1461019257600080fd5b806301ffc9a7146100ef57806306fdde0314610117578063081812fc1461012c575b600080fd5b6101026100fd366004610ffb565b61022d565b60405190151581526020015b60405180910390f35b61011f61027f565b60405161010e9190611068565b61013f61013a36600461107b565b610311565b6040516001600160a01b03909116815260200161010e565b61016a6101653660046110b0565b610338565b005b61016a61017a3660046110da565b610452565b61016a61018d3660046110da565b610483565b61013f6101a036600461107b565b61049e565b6101b86101b3366004611116565b6104fe565b60405190815260200161010e565b61011f610584565b61016a6101dc366004611141565b610593565b61016a6101ef366004611200565b6105a2565b61011f61020236600461107b565b6105da565b61010261021536600461127c565b6106ea565b6101b86102283660046112a6565b610718565b60006001600160e01b031982166380ac58cd60e01b148061025e57506001600160e01b03198216635b5e139f60e01b145b8061027957506301ffc9a760e01b6001600160e01b03198316145b92915050565b60606000805461028e90611322565b80601f01602080910402602001604051908101604052809291908181526020018280546102ba90611322565b80156103075780601f106102dc57610100808354040283529160200191610307565b820191906000526020600020905b8154815290600101906020018083116102ea57829003601f168201915b5050505050905090565b600061031c826107d2565b506000908152600460205260409020546001600160a01b031690565b60006103438261049e565b9050806001600160a01b0316836001600160a01b0316036103b55760405162461bcd60e51b815260206004820152602160248201527f4552433732313a20617070726f76616c20746f2063757272656e74206f776e656044820152603960f91b60648201526084015b60405180910390fd5b336001600160a01b03821614806103d157506103d181336106ea565b6104435760405162461bcd60e51b815260206004820152603e60248201527f4552433732313a20617070726f76652063616c6c6572206973206e6f7420746f60448201527f6b656e206f776e6572206e6f7220617070726f76656420666f7220616c6c000060648201526084016103ac565b61044d8383610834565b505050565b61045c33826108a2565b6104785760405162461bcd60e51b81526004016103ac9061135c565b61044d838383610900565b61044d838383604051806020016040528060008152506105a2565b6000818152600260205260408120546001600160a01b0316806102795760405162461bcd60e51b8152602060048201526018602482015277115490cdcc8c4e881a5b9d985b1a59081d1bdad95b88125160421b60448201526064016103ac565b60006001600160a01b0382166105685760405162461bcd60e51b815260206004820152602960248201527f4552433732313a2061646472657373207a65726f206973206e6f7420612076616044820152683634b21037bbb732b960b91b60648201526084016103ac565b506001600160a01b031660009081526003602052604090205490565b60606001805461028e90611322565b61059e338383610a9c565b5050565b6105ac33836108a2565b6105c85760405162461bcd60e51b81526004016103ac9061135c565b6105d484848484610b6a565b50505050565b60606105e5826107d2565b600082815260066020526040812080546105fe90611322565b80601f016020809104026020016040519081016040528092919081815260200182805461062a90611322565b80156106775780601f1061064c57610100808354040283529160200191610677565b820191906000526020600020905b81548152906001019060200180831161065a57829003601f168201915b50505050509050600061069560408051602081019091526000815290565b905080516000036106a7575092915050565b8151156106d95780826040516020016106c19291906113aa565b60405160208183030381529060405292505050919050565b6106e284610b9d565b949350505050565b6001600160a01b03918216600090815260056020908152604080832093909416825291909152205460ff1690565b6000610728600780546001019055565b604080518082019091528381528215156020820190815260088054600181018255600091825292517ff3f7a9fe364faab93b216da50a3214154f22a0a2b415b23a84c8169e8b636ee360029094029384015590517ff3f7a9fe364faab93b216da50a3214154f22a0a2b415b23a84c8169e8b636ee4909201805460ff19169215159290921790915560075490506107bf8682610c11565b6107c98186610d53565b95945050505050565b6000818152600260205260409020546001600160a01b03166108315760405162461bcd60e51b8152602060048201526018602482015277115490cdcc8c4e881a5b9d985b1a59081d1bdad95b88125160421b60448201526064016103ac565b50565b600081815260046020526040902080546001600160a01b0319166001600160a01b03841690811790915581906108698261049e565b6001600160a01b03167f8c5be1e5ebec7d5bd14f71427d1e84f3dd0314c0f7b2291e5b200ac8c7c3b92560405160405180910390a45050565b6000806108ae8361049e565b9050806001600160a01b0316846001600160a01b031614806108d557506108d581856106ea565b806106e25750836001600160a01b03166108ee84610311565b6001600160a01b031614949350505050565b826001600160a01b03166109138261049e565b6001600160a01b0316146109775760405162461bcd60e51b815260206004820152602560248201527f4552433732313a207472616e736665722066726f6d20696e636f72726563742060448201526437bbb732b960d91b60648201526084016103ac565b6001600160a01b0382166109d95760405162461bcd60e51b8152602060048201526024808201527f4552433732313a207472616e7366657220746f20746865207a65726f206164646044820152637265737360e01b60648201526084016103ac565b6109e4600082610834565b6001600160a01b0383166000908152600360205260408120805460019290610a0d9084906113ef565b90915550506001600160a01b0382166000908152600360205260408120805460019290610a3b908490611402565b909155505060008181526002602052604080822080546001600160a01b0319166001600160a01b0386811691821790925591518493918716917fddf252ad1be2c89b69c2b068fc378daa952ba7f163c4a11628f55a4df523b3ef91a4505050565b816001600160a01b0316836001600160a01b031603610afd5760405162461bcd60e51b815260206004820152601960248201527f4552433732313a20617070726f766520746f2063616c6c65720000000000000060448201526064016103ac565b6001600160a01b03838116600081815260056020908152604080832094871680845294825291829020805460ff191686151590811790915591519182527f17307eab39ab6107e8899845ad3d59bd9653f200f220920489ca2b5937696c31910160405180910390a3505050565b610b75848484610900565b610b8184848484610de6565b6105d45760405162461bcd60e51b81526004016103ac90611415565b6060610ba8826107d2565b6000610bbf60408051602081019091526000815290565b90506000815111610bdf5760405180602001604052806000815250610c0a565b80610be984610ee4565b604051602001610bfa9291906113aa565b6040516020818303038152906040525b9392505050565b6001600160a01b038216610c675760405162461bcd60e51b815260206004820181905260248201527f4552433732313a206d696e7420746f20746865207a65726f206164647265737360448201526064016103ac565b6000818152600260205260409020546001600160a01b031615610ccc5760405162461bcd60e51b815260206004820152601c60248201527f4552433732313a20746f6b656e20616c7265616479206d696e7465640000000060448201526064016103ac565b6001600160a01b0382166000908152600360205260408120805460019290610cf5908490611402565b909155505060008181526002602052604080822080546001600160a01b0319166001600160a01b03861690811790915590518392907fddf252ad1be2c89b69c2b068fc378daa952ba7f163c4a11628f55a4df523b3ef908290a45050565b6000828152600260205260409020546001600160a01b0316610dce5760405162461bcd60e51b815260206004820152602e60248201527f45524337323155524953746f726167653a2055524920736574206f66206e6f6e60448201526d32bc34b9ba32b73a103a37b5b2b760911b60648201526084016103ac565b600082815260066020526040902061044d82826114b5565b60006001600160a01b0384163b15610edc57604051630a85bd0160e11b81526001600160a01b0385169063150b7a0290610e2a903390899088908890600401611575565b6020604051808303816000875af1925050508015610e65575060408051601f3d908101601f19168201909252610e62918101906115b2565b60015b610ec2573d808015610e93576040519150601f19603f3d011682016040523d82523d6000602084013e610e98565b606091505b508051600003610eba5760405162461bcd60e51b81526004016103ac90611415565b805181602001fd5b6001600160e01b031916630a85bd0160e11b1490506106e2565b5060016106e2565b606081600003610f0b5750506040805180820190915260018152600360fc1b602082015290565b8160005b8115610f355780610f1f816115cf565b9150610f2e9050600a836115fe565b9150610f0f565b60008167ffffffffffffffff811115610f5057610f50611174565b6040519080825280601f01601f191660200182016040528015610f7a576020820181803683370190505b5090505b84156106e257610f8f6001836113ef565b9150610f9c600a86611612565b610fa7906030611402565b60f81b818381518110610fbc57610fbc611626565b60200101906001600160f81b031916908160001a905350610fde600a866115fe565b9450610f7e565b6001600160e01b03198116811461083157600080fd5b60006020828403121561100d57600080fd5b8135610c0a81610fe5565b60005b8381101561103357818101518382015260200161101b565b50506000910152565b60008151808452611054816020860160208601611018565b601f01601f19169290920160200192915050565b602081526000610c0a602083018461103c565b60006020828403121561108d57600080fd5b5035919050565b80356001600160a01b03811681146110ab57600080fd5b919050565b600080604083850312156110c357600080fd5b6110cc83611094565b946020939093013593505050565b6000806000606084860312156110ef57600080fd5b6110f884611094565b925061110660208501611094565b9150604084013590509250925092565b60006020828403121561112857600080fd5b610c0a82611094565b803580151581146110ab57600080fd5b6000806040838503121561115457600080fd5b61115d83611094565b915061116b60208401611131565b90509250929050565b634e487b7160e01b600052604160045260246000fd5b600067ffffffffffffffff808411156111a5576111a5611174565b604051601f8501601f19908116603f011681019082821181831017156111cd576111cd611174565b816040528093508581528686860111156111e657600080fd5b858560208301376000602087830101525050509392505050565b6000806000806080858703121561121657600080fd5b61121f85611094565b935061122d60208601611094565b925060408501359150606085013567ffffffffffffffff81111561125057600080fd5b8501601f8101871361126157600080fd5b6112708782356020840161118a565b91505092959194509250565b6000806040838503121561128f57600080fd5b61129883611094565b915061116b60208401611094565b600080600080608085870312156112bc57600080fd5b6112c585611094565b9350602085013567ffffffffffffffff8111156112e157600080fd5b8501601f810187136112f257600080fd5b6113018782356020840161118a565b9350506040850135915061131760608601611131565b905092959194509250565b600181811c9082168061133657607f821691505b60208210810361135657634e487b7160e01b600052602260045260246000fd5b50919050565b6020808252602e908201527f4552433732313a2063616c6c6572206973206e6f7420746f6b656e206f776e6560408201526d1c881b9bdc88185c1c1c9bdd995960921b606082015260800190565b600083516113bc818460208801611018565b8351908301906113d0818360208801611018565b01949350505050565b634e487b7160e01b600052601160045260246000fd5b81810381811115610279576102796113d9565b80820180821115610279576102796113d9565b60208082526032908201527f4552433732313a207472616e7366657220746f206e6f6e20455243373231526560408201527131b2b4bb32b91034b6b83632b6b2b73a32b960711b606082015260800190565b601f82111561044d57600081815260208120601f850160051c8101602086101561148e5750805b601f850160051c820191505b818110156114ad5782815560010161149a565b505050505050565b815167ffffffffffffffff8111156114cf576114cf611174565b6114e3816114dd8454611322565b84611467565b602080601f83116001811461151857600084156115005750858301515b600019600386901b1c1916600185901b1785556114ad565b600085815260208120601f198616915b8281101561154757888601518255948401946001909101908401611528565b50858210156115655787850151600019600388901b60f8161c191681555b5050505050600190811b01905550565b6001600160a01b03858116825284166020820152604081018390526080606082018190526000906115a89083018461103c565b9695505050505050565b6000602082840312156115c457600080fd5b8151610c0a81610fe5565b6000600182016115e1576115e16113d9565b5060010190565b634e487b7160e01b600052601260045260246000fd5b60008261160d5761160d6115e8565b500490565b600082611621576116216115e8565b500690565b634e487b7160e01b600052603260045260246000fdfea26469706673582212207f4653a136a0a6dce39e0c157bd1e261e53be141d0031e0c44dda22c74f691c864736f6c63430008110033",
    "sourcePath": "c:/Users/yanni/Documents/Formation Alyra/coursIpfs/contracts/NFTCollection.sol",
    "compiler": {
        "name": "solc",
        "version": "0.8.17+commit.8df45f5f"
    },
    "functionHashes": {
        "MintTree(address,string,uint256,bool)": "fa2f67ce",
        "approve(address,uint256)": "095ea7b3",
        "balanceOf(address)": "70a08231",
        "getApproved(uint256)": "081812fc",
        "isApprovedForAll(address,address)": "e985e9c5",
        "name()": "06fdde03",
        "ownerOf(uint256)": "6352211e",
        "safeTransferFrom(address,address,uint256)": "42842e0e",
        "safeTransferFrom(address,address,uint256,bytes)": "b88d4fde",
        "setApprovalForAll(address,bool)": "a22cb465",
        "supportsInterface(bytes4)": "01ffc9a7",
        "symbol()": "95d89b41",
        "tokenURI(uint256)": "c87b56dd",
        "transferFrom(address,address,uint256)": "23b872dd"
    },
    "gasEstimates": {
        "creation": {
            "codeDepositCost": "1149200",
            "executionCost": "infinite",
            "totalCost": "infinite"
        },
        "external": {
            "MintTree(address,string,uint256,bool)": "infinite",
            "approve(address,uint256)": "infinite",
            "balanceOf(address)": "2612",
            "getApproved(uint256)": "4792",
            "isApprovedForAll(address,address)": "infinite",
            "name()": "infinite",
            "ownerOf(uint256)": "2627",
            "safeTransferFrom(address,address,uint256)": "infinite",
            "safeTransferFrom(address,address,uint256,bytes)": "infinite",
            "setApprovalForAll(address,bool)": "infinite",
            "supportsInterface(bytes4)": "534",
            "symbol()": "infinite",
            "tokenURI(uint256)": "infinite",
            "transferFrom(address,address,uint256)": "infinite"
        }
    }
}